{
  "contractName": "EMAILBLOCK",
  "abi": [
    {
      "inputs": [
        {
          "internalType": "address",
          "name": "",
          "type": "address"
        }
      ],
      "name": "publickey",
      "outputs": [
        {
          "internalType": "string",
          "name": "",
          "type": "string"
        }
      ],
      "stateMutability": "view",
      "type": "function",
      "constant": true
    },
    {
      "inputs": [
        {
          "internalType": "string",
          "name": "_pubkey",
          "type": "string"
        }
      ],
      "name": "setpublickey",
      "outputs": [],
      "stateMutability": "nonpayable",
      "type": "function"
    },
    {
      "inputs": [
        {
          "internalType": "address",
          "name": "_reciever",
          "type": "address"
        }
      ],
      "name": "getpublickey",
      "outputs": [
        {
          "internalType": "string",
          "name": "",
          "type": "string"
        }
      ],
      "stateMutability": "view",
      "type": "function",
      "constant": true
    },
    {
      "inputs": [
        {
          "internalType": "string",
          "name": "_prikey",
          "type": "string"
        }
      ],
      "name": "setprivatekey",
      "outputs": [],
      "stateMutability": "nonpayable",
      "type": "function"
    },
    {
      "inputs": [],
      "name": "getprivatekey",
      "outputs": [
        {
          "internalType": "string",
          "name": "",
          "type": "string"
        }
      ],
      "stateMutability": "view",
      "type": "function",
      "constant": true
    },
    {
      "inputs": [
        {
          "internalType": "address",
          "name": "_reciever",
          "type": "address"
        },
        {
          "internalType": "string",
          "name": "_body",
          "type": "string"
        },
        {
          "internalType": "bool",
          "name": "_issecure",
          "type": "bool"
        }
      ],
      "name": "sendEmail",
      "outputs": [],
      "stateMutability": "nonpayable",
      "type": "function"
    },
    {
      "inputs": [],
      "name": "getEmails",
      "outputs": [
        {
          "components": [
            {
              "internalType": "address",
              "name": "sender",
              "type": "address"
            },
            {
              "internalType": "address",
              "name": "reciever",
              "type": "address"
            },
            {
              "internalType": "uint256",
              "name": "timestamp",
              "type": "uint256"
            },
            {
              "internalType": "string",
              "name": "content",
              "type": "string"
            },
            {
              "internalType": "bool",
              "name": "isSecure",
              "type": "bool"
            }
          ],
          "internalType": "struct EMAILBLOCK.mail[]",
          "name": "",
          "type": "tuple[]"
        }
      ],
      "stateMutability": "view",
      "type": "function",
      "constant": true
    },
    {
      "inputs": [
        {
          "internalType": "uint256",
          "name": "num",
          "type": "uint256"
        }
      ],
      "name": "getEmail",
      "outputs": [
        {
          "components": [
            {
              "internalType": "address",
              "name": "sender",
              "type": "address"
            },
            {
              "internalType": "address",
              "name": "reciever",
              "type": "address"
            },
            {
              "internalType": "uint256",
              "name": "timestamp",
              "type": "uint256"
            },
            {
              "internalType": "string",
              "name": "content",
              "type": "string"
            },
            {
              "internalType": "bool",
              "name": "isSecure",
              "type": "bool"
            }
          ],
          "internalType": "struct EMAILBLOCK.mail",
          "name": "",
          "type": "tuple"
        }
      ],
      "stateMutability": "view",
      "type": "function",
      "constant": true
    }
  ],
  "bytecode": "0x608060405234801561001057600080fd5b5061151f806100206000396000f3fe608060405234801561001057600080fd5b50600436106100885760003560e01c806361b25b591161005b57806361b25b59146101155780636884839d14610131578063972fe8bc14610161578063c2549c6d1461019157610088565b806337c270e61461008d578063383f35cd146100ab578063479ddc4e146100c75780634ad63b26146100e5575b600080fd5b6100956101ad565b6040516100a29190610d60565b60405180910390f35b6100c560048036038101906100c09190610f23565b61046e565b005b6100cf610605565b6040516100dc9190610fdc565b60405180910390f35b6100ff60048036038101906100fa9190610ffe565b6106d4565b60405161010c9190610fdc565b60405180910390f35b61012f600480360381019061012a919061102b565b6107a5565b005b61014b60048036038101906101469190610ffe565b6107f5565b6040516101589190610fdc565b60405180910390f35b61017b600480360381019061017691906110a0565b610895565b6040516101889190611143565b60405180910390f35b6101ab60048036038101906101a6919061102b565b610a76565b005b606060008060003373ffffffffffffffffffffffffffffffffffffffff1673ffffffffffffffffffffffffffffffffffffffff16815260200190815260200160002080549050905060008167ffffffffffffffff81111561021157610210610dcc565b5b60405190808252806020026020018201604052801561024a57816020015b610237610ac6565b81526020019060019003908161022f5790505b5090506000805b83811015610464576000803373ffffffffffffffffffffffffffffffffffffffff1673ffffffffffffffffffffffffffffffffffffffff16815260200190815260200160002081815481106102a9576102a8611165565b5b90600052602060002090600502016040518060a00160405290816000820160009054906101000a900473ffffffffffffffffffffffffffffffffffffffff1673ffffffffffffffffffffffffffffffffffffffff1673ffffffffffffffffffffffffffffffffffffffff1681526020016001820160009054906101000a900473ffffffffffffffffffffffffffffffffffffffff1673ffffffffffffffffffffffffffffffffffffffff1673ffffffffffffffffffffffffffffffffffffffff16815260200160028201548152602001600382018054610388906111c3565b80601f01602080910402602001604051908101604052809291908181526020018280546103b4906111c3565b80156104015780601f106103d657610100808354040283529160200191610401565b820191906000526020600020905b8154815290600101906020018083116103e457829003601f168201915b505050505081526020016004820160009054906101000a900460ff16151515158152505083838151811061043857610437611165565b5b6020026020010181905250818061044e90611223565b925050808061045c90611223565b915050610251565b5081935050505090565b60006040518060a001604052803373ffffffffffffffffffffffffffffffffffffffff1681526020018573ffffffffffffffffffffffffffffffffffffffff16815260200142815260200184815260200183151581525090506000808573ffffffffffffffffffffffffffffffffffffffff1673ffffffffffffffffffffffffffffffffffffffff16815260200190815260200160002081908060018154018082558091505060019003906000526020600020906005020160009091909190915060008201518160000160006101000a81548173ffffffffffffffffffffffffffffffffffffffff021916908373ffffffffffffffffffffffffffffffffffffffff16021790555060208201518160010160006101000a81548173ffffffffffffffffffffffffffffffffffffffff021916908373ffffffffffffffffffffffffffffffffffffffff1602179055506040820151816002015560608201518160030190816105dc9190611417565b5060808201518160040160006101000a81548160ff021916908315150217905550505050505050565b6060600260003373ffffffffffffffffffffffffffffffffffffffff1673ffffffffffffffffffffffffffffffffffffffff1681526020019081526020016000208054610651906111c3565b80601f016020809104026020016040519081016040528092919081815260200182805461067d906111c3565b80156106ca5780601f1061069f576101008083540402835291602001916106ca565b820191906000526020600020905b8154815290600101906020018083116106ad57829003601f168201915b5050505050905090565b6060600160008373ffffffffffffffffffffffffffffffffffffffff1673ffffffffffffffffffffffffffffffffffffffff1681526020019081526020016000208054610720906111c3565b80601f016020809104026020016040519081016040528092919081815260200182805461074c906111c3565b80156107995780601f1061076e57610100808354040283529160200191610799565b820191906000526020600020905b81548152906001019060200180831161077c57829003601f168201915b50505050509050919050565b80600260003373ffffffffffffffffffffffffffffffffffffffff1673ffffffffffffffffffffffffffffffffffffffff16815260200190815260200160002090816107f19190611417565b5050565b60016020528060005260406000206000915090508054610814906111c3565b80601f0160208091040260200160405190810160405280929190818152602001828054610840906111c3565b801561088d5780601f106108625761010080835404028352916020019161088d565b820191906000526020600020905b81548152906001019060200180831161087057829003601f168201915b505050505081565b61089d610ac6565b60008060003373ffffffffffffffffffffffffffffffffffffffff1673ffffffffffffffffffffffffffffffffffffffff16815260200190815260200160002083815481106108ef576108ee611165565b5b90600052602060002090600502016040518060a00160405290816000820160009054906101000a900473ffffffffffffffffffffffffffffffffffffffff1673ffffffffffffffffffffffffffffffffffffffff1673ffffffffffffffffffffffffffffffffffffffff1681526020016001820160009054906101000a900473ffffffffffffffffffffffffffffffffffffffff1673ffffffffffffffffffffffffffffffffffffffff1673ffffffffffffffffffffffffffffffffffffffff168152602001600282015481526020016003820180546109ce906111c3565b80601f01602080910402602001604051908101604052809291908181526020018280546109fa906111c3565b8015610a475780601f10610a1c57610100808354040283529160200191610a47565b820191906000526020600020905b815481529060010190602001808311610a2a57829003601f168201915b505050505081526020016004820160009054906101000a900460ff161515151581525050905080915050919050565b80600160003373ffffffffffffffffffffffffffffffffffffffff1673ffffffffffffffffffffffffffffffffffffffff1681526020019081526020016000209081610ac29190611417565b5050565b6040518060a00160405280600073ffffffffffffffffffffffffffffffffffffffff168152602001600073ffffffffffffffffffffffffffffffffffffffff16815260200160008152602001606081526020016000151581525090565b600081519050919050565b600082825260208201905092915050565b6000819050602082019050919050565b600073ffffffffffffffffffffffffffffffffffffffff82169050919050565b6000610b7a82610b4f565b9050919050565b610b8a81610b6f565b82525050565b6000819050919050565b610ba381610b90565b82525050565b600081519050919050565b600082825260208201905092915050565b60005b83811015610be3578082015181840152602081019050610bc8565b60008484015250505050565b6000601f19601f8301169050919050565b6000610c0b82610ba9565b610c158185610bb4565b9350610c25818560208601610bc5565b610c2e81610bef565b840191505092915050565b60008115159050919050565b610c4e81610c39565b82525050565b600060a083016000830151610c6c6000860182610b81565b506020830151610c7f6020860182610b81565b506040830151610c926040860182610b9a565b5060608301518482036060860152610caa8282610c00565b9150506080830151610cbf6080860182610c45565b508091505092915050565b6000610cd68383610c54565b905092915050565b6000602082019050919050565b6000610cf682610b23565b610d008185610b2e565b935083602082028501610d1285610b3f565b8060005b85811015610d4e5784840389528151610d2f8582610cca565b9450610d3a83610cde565b925060208a01995050600181019050610d16565b50829750879550505050505092915050565b60006020820190508181036000830152610d7a8184610ceb565b905092915050565b6000604051905090565b600080fd5b600080fd5b610d9f81610b6f565b8114610daa57600080fd5b50565b600081359050610dbc81610d96565b92915050565b600080fd5b600080fd5b7f4e487b7100000000000000000000000000000000000000000000000000000000600052604160045260246000fd5b610e0482610bef565b810181811067ffffffffffffffff82111715610e2357610e22610dcc565b5b80604052505050565b6000610e36610d82565b9050610e428282610dfb565b919050565b600067ffffffffffffffff821115610e6257610e61610dcc565b5b610e6b82610bef565b9050602081019050919050565b82818337600083830152505050565b6000610e9a610e9584610e47565b610e2c565b905082815260208101848484011115610eb657610eb5610dc7565b5b610ec1848285610e78565b509392505050565b600082601f830112610ede57610edd610dc2565b5b8135610eee848260208601610e87565b91505092915050565b610f0081610c39565b8114610f0b57600080fd5b50565b600081359050610f1d81610ef7565b92915050565b600080600060608486031215610f3c57610f3b610d8c565b5b6000610f4a86828701610dad565b935050602084013567ffffffffffffffff811115610f6b57610f6a610d91565b5b610f7786828701610ec9565b9250506040610f8886828701610f0e565b9150509250925092565b600082825260208201905092915050565b6000610fae82610ba9565b610fb88185610f92565b9350610fc8818560208601610bc5565b610fd181610bef565b840191505092915050565b60006020820190508181036000830152610ff68184610fa3565b905092915050565b60006020828403121561101457611013610d8c565b5b600061102284828501610dad565b91505092915050565b60006020828403121561104157611040610d8c565b5b600082013567ffffffffffffffff81111561105f5761105e610d91565b5b61106b84828501610ec9565b91505092915050565b61107d81610b90565b811461108857600080fd5b50565b60008135905061109a81611074565b92915050565b6000602082840312156110b6576110b5610d8c565b5b60006110c48482850161108b565b91505092915050565b600060a0830160008301516110e56000860182610b81565b5060208301516110f86020860182610b81565b50604083015161110b6040860182610b9a565b50606083015184820360608601526111238282610c00565b91505060808301516111386080860182610c45565b508091505092915050565b6000602082019050818103600083015261115d81846110cd565b905092915050565b7f4e487b7100000000000000000000000000000000000000000000000000000000600052603260045260246000fd5b7f4e487b7100000000000000000000000000000000000000000000000000000000600052602260045260246000fd5b600060028204905060018216806111db57607f821691505b6020821081036111ee576111ed611194565b5b50919050565b7f4e487b7100000000000000000000000000000000000000000000000000000000600052601160045260246000fd5b600061122e82610b90565b91507fffffffffffffffffffffffffffffffffffffffffffffffffffffffffffffffff82036112605761125f6111f4565b5b600182019050919050565b60008190508160005260206000209050919050565b60006020601f8301049050919050565b600082821b905092915050565b6000600883026112cd7fffffffffffffffffffffffffffffffffffffffffffffffffffffffffffffffff82611290565b6112d78683611290565b95508019841693508086168417925050509392505050565b6000819050919050565b600061131461130f61130a84610b90565b6112ef565b610b90565b9050919050565b6000819050919050565b61132e836112f9565b61134261133a8261131b565b84845461129d565b825550505050565b600090565b61135761134a565b611362818484611325565b505050565b5b818110156113865761137b60008261134f565b600181019050611368565b5050565b601f8211156113cb5761139c8161126b565b6113a584611280565b810160208510156113b4578190505b6113c86113c085611280565b830182611367565b50505b505050565b600082821c905092915050565b60006113ee600019846008026113d0565b1980831691505092915050565b600061140783836113dd565b9150826002028217905092915050565b61142082610ba9565b67ffffffffffffffff81111561143957611438610dcc565b5b61144382546111c3565b61144e82828561138a565b600060209050601f831160018114611481576000841561146f578287015190505b61147985826113fb565b8655506114e1565b601f19841661148f8661126b565b60005b828110156114b757848901518255600182019150602085019450602081019050611492565b868310156114d457848901516114d0601f8916826113dd565b8355505b6001600288020188555050505b50505050505056fea26469706673582212208849a6869507e1af2dd0f86888f236f77951b1fc2b8c6d1f623683080d463e4164736f6c63430008130033",
  "immutableReferences": {},
  "source": "// SPDX-License-Identifier: MIT\npragma solidity ^0.8.0;\n\ncontract EMAILBLOCK{\n    \n    struct mail{\n        address sender;\n        address reciever;\n        uint timestamp;\n        string content;\n        bool isSecure;\n    }\n    \n    mapping(address=>mail[]) private inbox;\n    //mail[] mails;\n    mapping(address=>string) public publickey;\n    mapping(address=>string) private privatekey;\n\n    function setpublickey(string memory _pubkey) public\n    {\n        publickey[msg.sender] = _pubkey;\n    }\n    function getpublickey(address _reciever) public view returns(string memory)\n    {\n        return publickey[_reciever];\n    }\n\n    function setprivatekey(string memory _prikey) public{\n        privatekey[msg.sender] = _prikey;\n    }\n\n    function getprivatekey() public view returns(string memory){\n        return privatekey[msg.sender];\n    }\n\n    \n    function sendEmail(address _reciever, string memory _body, bool _issecure) public\n    {\n       // require(publicKeys[_reciever].length > 0, \"Recipient private key not set\");\n        mail memory newmail = mail({ sender: msg.sender,\n        reciever : _reciever, timestamp: block.timestamp, content: _body, isSecure: _issecure });\n        inbox[_reciever].push(newmail);\n    }\n\n    function getEmails() public view returns(mail[] memory)\n    {\n      //  require(privateKeys[msg.sender].length > 0, \"Recipient private key not set\");\n        uint n = inbox[msg.sender].length;\n        mail[] memory result = new mail[](n);\n        uint256 index = 0;\n        for (uint256 i = 0; i < n; i++) {\n                result[index] = inbox[msg.sender][i];\n                index++;\n        }\n        return result;    \n    }\n\n    function getEmail(uint num) public view returns(mail memory)\n    {\n     //   require(privateKeys[msg.sender].length > 0, \"Recipient private key not set\");\n        mail memory result = inbox[msg.sender][num];\n        return result;\n    }\n    \n}\n\n",
  "sourcePath": "D:\\github\\CRUD\\EMAIL-BLOCKCHAIN\\backend\\ETH\\contracts\\EMAILBLOCK.sol",
  "compiler": {
    "name": "solc",
    "version": "0.8.19+commit.7dd6d404.Emscripten.clang"
  },
  "schemaVersion": "3.4.13",
  "updatedAt": "2023-05-02T04:07:27.875Z",
  "networkType": "ethereum",
  "devdoc": {
    "kind": "dev",
    "methods": {},
    "version": 1
  },
  "userdoc": {
    "kind": "user",
    "methods": {},
    "version": 1
  }
}