{
  "contractName": "EMAILBLOCK",
  "abi": [
    {
      "inputs": [
        {
          "internalType": "address",
          "name": "",
          "type": "address"
        },
        {
          "internalType": "uint256",
          "name": "",
          "type": "uint256"
        }
      ],
      "name": "inbox",
      "outputs": [
        {
          "internalType": "address",
          "name": "sender",
          "type": "address"
        },
        {
          "internalType": "address",
          "name": "reciever",
          "type": "address"
        },
        {
          "internalType": "uint256",
          "name": "timestamp",
          "type": "uint256"
        },
        {
          "internalType": "string",
          "name": "content",
          "type": "string"
        }
      ],
      "stateMutability": "view",
      "type": "function"
    },
    {
      "inputs": [
        {
          "internalType": "address",
          "name": "_reciever",
          "type": "address"
        },
        {
          "internalType": "string",
          "name": "_body",
          "type": "string"
        }
      ],
      "name": "sendEmail",
      "outputs": [],
      "stateMutability": "nonpayable",
      "type": "function"
    },
    {
      "inputs": [],
      "name": "getEmails",
      "outputs": [
        {
          "components": [
            {
              "internalType": "address",
              "name": "sender",
              "type": "address"
            },
            {
              "internalType": "address",
              "name": "reciever",
              "type": "address"
            },
            {
              "internalType": "uint256",
              "name": "timestamp",
              "type": "uint256"
            },
            {
              "internalType": "string",
              "name": "content",
              "type": "string"
            }
          ],
          "internalType": "struct EMAILBLOCK.mail[]",
          "name": "",
          "type": "tuple[]"
        }
      ],
      "stateMutability": "view",
      "type": "function"
    },
    {
      "inputs": [
        {
          "internalType": "uint256",
          "name": "num",
          "type": "uint256"
        }
      ],
      "name": "getEmail",
      "outputs": [
        {
          "components": [
            {
              "internalType": "address",
              "name": "sender",
              "type": "address"
            },
            {
              "internalType": "address",
              "name": "reciever",
              "type": "address"
            },
            {
              "internalType": "uint256",
              "name": "timestamp",
              "type": "uint256"
            },
            {
              "internalType": "string",
              "name": "content",
              "type": "string"
            }
          ],
          "internalType": "struct EMAILBLOCK.mail",
          "name": "",
          "type": "tuple"
        }
      ],
      "stateMutability": "view",
      "type": "function"
    }
  ],
  "bytecode": "0x608060405234801561001057600080fd5b506111bf806100206000396000f3fe608060405234801561001057600080fd5b506004361061004c5760003560e01c806322bbab451461005157806337c270e61461006d5780634d622e7a1461008b578063972fe8bc146100be575b600080fd5b61006b600480360381019061006691906109e9565b6100ee565b005b61007561025c565b6040516100829190610c11565b60405180910390f35b6100a560048036038101906100a09190610c5f565b610502565b6040516100b59493929190610d07565b60405180910390f35b6100d860048036038101906100d39190610d53565b610617565b6040516100e59190610de3565b60405180910390f35b600060405180608001604052803373ffffffffffffffffffffffffffffffffffffffff1681526020018473ffffffffffffffffffffffffffffffffffffffff1681526020014281526020018381525090506000808473ffffffffffffffffffffffffffffffffffffffff1673ffffffffffffffffffffffffffffffffffffffff16815260200190815260200160002081908060018154018082558091505060019003906000526020600020906004020160009091909190915060008201518160000160006101000a81548173ffffffffffffffffffffffffffffffffffffffff021916908373ffffffffffffffffffffffffffffffffffffffff16021790555060208201518160010160006101000a81548173ffffffffffffffffffffffffffffffffffffffff021916908373ffffffffffffffffffffffffffffffffffffffff1602179055506040820151816002015560608201518160030190816102549190611011565b505050505050565b606060008060003373ffffffffffffffffffffffffffffffffffffffff1673ffffffffffffffffffffffffffffffffffffffff16815260200190815260200160002080549050905060008167ffffffffffffffff8111156102c0576102bf6108be565b5b6040519080825280602002602001820160405280156102f957816020015b6102e66107dd565b8152602001906001900390816102de5790505b5090506000805b838110156104f8576000803373ffffffffffffffffffffffffffffffffffffffff1673ffffffffffffffffffffffffffffffffffffffff1681526020019081526020016000208181548110610358576103576110e3565b5b90600052602060002090600402016040518060800160405290816000820160009054906101000a900473ffffffffffffffffffffffffffffffffffffffff1673ffffffffffffffffffffffffffffffffffffffff1673ffffffffffffffffffffffffffffffffffffffff1681526020016001820160009054906101000a900473ffffffffffffffffffffffffffffffffffffffff1673ffffffffffffffffffffffffffffffffffffffff1673ffffffffffffffffffffffffffffffffffffffff1681526020016002820154815260200160038201805461043790610e34565b80601f016020809104026020016040519081016040528092919081815260200182805461046390610e34565b80156104b05780601f10610485576101008083540402835291602001916104b0565b820191906000526020600020905b81548152906001019060200180831161049357829003601f168201915b5050505050815250508383815181106104cc576104cb6110e3565b5b602002602001018190525081806104e290611141565b92505080806104f090611141565b915050610300565b5081935050505090565b6000602052816000526040600020818154811061051e57600080fd5b9060005260206000209060040201600091509150508060000160009054906101000a900473ffffffffffffffffffffffffffffffffffffffff16908060010160009054906101000a900473ffffffffffffffffffffffffffffffffffffffff169080600201549080600301805461059490610e34565b80601f01602080910402602001604051908101604052809291908181526020018280546105c090610e34565b801561060d5780601f106105e25761010080835404028352916020019161060d565b820191906000526020600020905b8154815290600101906020018083116105f057829003601f168201915b5050505050905084565b61061f6107dd565b60008060003373ffffffffffffffffffffffffffffffffffffffff1673ffffffffffffffffffffffffffffffffffffffff1681526020019081526020016000208381548110610671576106706110e3565b5b90600052602060002090600402016040518060800160405290816000820160009054906101000a900473ffffffffffffffffffffffffffffffffffffffff1673ffffffffffffffffffffffffffffffffffffffff1673ffffffffffffffffffffffffffffffffffffffff1681526020016001820160009054906101000a900473ffffffffffffffffffffffffffffffffffffffff1673ffffffffffffffffffffffffffffffffffffffff1673ffffffffffffffffffffffffffffffffffffffff1681526020016002820154815260200160038201805461075090610e34565b80601f016020809104026020016040519081016040528092919081815260200182805461077c90610e34565b80156107c95780601f1061079e576101008083540402835291602001916107c9565b820191906000526020600020905b8154815290600101906020018083116107ac57829003601f168201915b505050505081525050905080915050919050565b6040518060800160405280600073ffffffffffffffffffffffffffffffffffffffff168152602001600073ffffffffffffffffffffffffffffffffffffffff16815260200160008152602001606081525090565b6000604051905090565b600080fd5b600080fd5b600073ffffffffffffffffffffffffffffffffffffffff82169050919050565b600061087082610845565b9050919050565b61088081610865565b811461088b57600080fd5b50565b60008135905061089d81610877565b92915050565b600080fd5b600080fd5b6000601f19601f8301169050919050565b7f4e487b7100000000000000000000000000000000000000000000000000000000600052604160045260246000fd5b6108f6826108ad565b810181811067ffffffffffffffff82111715610915576109146108be565b5b80604052505050565b6000610928610831565b905061093482826108ed565b919050565b600067ffffffffffffffff821115610954576109536108be565b5b61095d826108ad565b9050602081019050919050565b82818337600083830152505050565b600061098c61098784610939565b61091e565b9050828152602081018484840111156109a8576109a76108a8565b5b6109b384828561096a565b509392505050565b600082601f8301126109d0576109cf6108a3565b5b81356109e0848260208601610979565b91505092915050565b60008060408385031215610a00576109ff61083b565b5b6000610a0e8582860161088e565b925050602083013567ffffffffffffffff811115610a2f57610a2e610840565b5b610a3b858286016109bb565b9150509250929050565b600081519050919050565b600082825260208201905092915050565b6000819050602082019050919050565b610a7a81610865565b82525050565b6000819050919050565b610a9381610a80565b82525050565b600081519050919050565b600082825260208201905092915050565b60005b83811015610ad3578082015181840152602081019050610ab8565b60008484015250505050565b6000610aea82610a99565b610af48185610aa4565b9350610b04818560208601610ab5565b610b0d816108ad565b840191505092915050565b6000608083016000830151610b306000860182610a71565b506020830151610b436020860182610a71565b506040830151610b566040860182610a8a565b5060608301518482036060860152610b6e8282610adf565b9150508091505092915050565b6000610b878383610b18565b905092915050565b6000602082019050919050565b6000610ba782610a45565b610bb18185610a50565b935083602082028501610bc385610a61565b8060005b85811015610bff5784840389528151610be08582610b7b565b9450610beb83610b8f565b925060208a01995050600181019050610bc7565b50829750879550505050505092915050565b60006020820190508181036000830152610c2b8184610b9c565b905092915050565b610c3c81610a80565b8114610c4757600080fd5b50565b600081359050610c5981610c33565b92915050565b60008060408385031215610c7657610c7561083b565b5b6000610c848582860161088e565b9250506020610c9585828601610c4a565b9150509250929050565b610ca881610865565b82525050565b610cb781610a80565b82525050565b600082825260208201905092915050565b6000610cd982610a99565b610ce38185610cbd565b9350610cf3818560208601610ab5565b610cfc816108ad565b840191505092915050565b6000608082019050610d1c6000830187610c9f565b610d296020830186610c9f565b610d366040830185610cae565b8181036060830152610d488184610cce565b905095945050505050565b600060208284031215610d6957610d6861083b565b5b6000610d7784828501610c4a565b91505092915050565b6000608083016000830151610d986000860182610a71565b506020830151610dab6020860182610a71565b506040830151610dbe6040860182610a8a565b5060608301518482036060860152610dd68282610adf565b9150508091505092915050565b60006020820190508181036000830152610dfd8184610d80565b905092915050565b7f4e487b7100000000000000000000000000000000000000000000000000000000600052602260045260246000fd5b60006002820490506001821680610e4c57607f821691505b602082108103610e5f57610e5e610e05565b5b50919050565b60008190508160005260206000209050919050565b60006020601f8301049050919050565b600082821b905092915050565b600060088302610ec77fffffffffffffffffffffffffffffffffffffffffffffffffffffffffffffffff82610e8a565b610ed18683610e8a565b95508019841693508086168417925050509392505050565b6000819050919050565b6000610f0e610f09610f0484610a80565b610ee9565b610a80565b9050919050565b6000819050919050565b610f2883610ef3565b610f3c610f3482610f15565b848454610e97565b825550505050565b600090565b610f51610f44565b610f5c818484610f1f565b505050565b5b81811015610f8057610f75600082610f49565b600181019050610f62565b5050565b601f821115610fc557610f9681610e65565b610f9f84610e7a565b81016020851015610fae578190505b610fc2610fba85610e7a565b830182610f61565b50505b505050565b600082821c905092915050565b6000610fe860001984600802610fca565b1980831691505092915050565b60006110018383610fd7565b9150826002028217905092915050565b61101a82610a99565b67ffffffffffffffff811115611033576110326108be565b5b61103d8254610e34565b611048828285610f84565b600060209050601f83116001811461107b5760008415611069578287015190505b6110738582610ff5565b8655506110db565b601f19841661108986610e65565b60005b828110156110b15784890151825560018201915060208501945060208101905061108c565b868310156110ce57848901516110ca601f891682610fd7565b8355505b6001600288020188555050505b505050505050565b7f4e487b7100000000000000000000000000000000000000000000000000000000600052603260045260246000fd5b7f4e487b7100000000000000000000000000000000000000000000000000000000600052601160045260246000fd5b600061114c82610a80565b91507fffffffffffffffffffffffffffffffffffffffffffffffffffffffffffffffff820361117e5761117d611112565b5b60018201905091905056fea2646970667358221220f6ebc2902be8565fb4cfff654db639d6272e6c632f0b111c550d1c96d5bac22e64736f6c63430008130033",
  "immutableReferences": {},
  "source": "// SPDX-License-Identifier: MIT\npragma solidity ^0.8.0;\n\ncontract EMAILBLOCK{\n    \n    struct mail{\n        address sender;\n        address reciever;\n        uint timestamp;\n        string content;\n    }\n    \n    mapping(address=>mail[])  public  inbox;\n    //mail[] mails;\n\n    function sendEmail(address _reciever, string memory _body) public\n    {\n       // require(publicKeys[_reciever].length > 0, \"Recipient private key not set\");\n        mail memory newmail = mail({ sender: msg.sender,\n        reciever : _reciever, timestamp: block.timestamp, content: _body});\n        inbox[_reciever].push(newmail);\n    }\n\n    function getEmails() public view returns(mail[] memory)\n    {\n      //  require(privateKeys[msg.sender].length > 0, \"Recipient private key not set\");\n        uint n = inbox[msg.sender].length;\n        mail[] memory result = new mail[](n);\n        uint256 index = 0;\n        for (uint256 i = 0; i < n; i++) {\n                result[index] = inbox[msg.sender][i];\n                index++;\n        }\n        return result;    \n    }\n\n    function getEmail(uint num) public view returns(mail memory)\n    {\n     //   require(privateKeys[msg.sender].length > 0, \"Recipient private key not set\");\n        mail memory result = inbox[msg.sender][num];\n        return result;\n    }\n    \n}\n\n",
  "sourcePath": "D:\\github\\CRUD\\EMAIL-BLOCKCHAIN\\backend\\ETH\\contracts\\EMAILBLOCK.sol",
  "compiler": {
    "name": "solc",
    "version": "0.8.19+commit.7dd6d404.Emscripten.clang"
  },
  "schemaVersion": "3.4.13",
  "updatedAt": "2023-04-23T13:27:05.224Z",
  "devdoc": {
    "kind": "dev",
    "methods": {},
    "version": 1
  },
  "userdoc": {
    "kind": "user",
    "methods": {},
    "version": 1
  }
}